:020000040800F2
:10000000000002204D3C00089D3C00089D3C00087B
:100010009D3C00089D3C00089D3C0008000000003D
:10002000000000000000000000000000710900084E
:100030009D3C000800000000710B0008B90B00088F
:100040009D3C00089D3C00089D3C00089D3C00082C
:100050009D3C00089D3C00089D3C00089D3C00081C
:100060009D3C00089D3C00089D3C00089D3C00080C
:100070009D3C00089D3C00089D3C00089D3C0008FC
:100080009D3C00089D3C00089D3C00089D3C0008EC
:100090009D3C00089D3C00089D3C00089D3C0008DC
:1000A0009D3C00089D3C00089D3C00089D3C0008CC
:1000B0009D3C00089D3C00089D3C00089D3C0008BC
:1000C0009D3C00089D3C00089D3C00089D3C0008AC
:1000D0009D3C00089D3C00089D3C00089D3C00089C
:1000E0009D3C00089D3C00089D3C00089D3C00088C
:1000F0009D3C00089D3C00089D3C00089D3C00087C
:100100009D3C00089D3C00089D3C00089D3C00086B
:100110009D3C00089D3C00089D3C00089D3C00085B
:100120009D3C00089D3C00089D3C00089D3C00084B
:100130009D3C00089D3C00089D3C00089D3C00083B
:100140009D3C00089D3C00089D3C00089D3C00082B
:100150009D3C00089D3C00089D3C00089D3C00081B
:100160009D3C00089D3C00089D3C00089D3C00080B
:100170009D3C00089D3C00089D3C000800000000DC
:080180009D3C00089D3C0008B5
:1001900010B5054C237833B9044B13B10448AFF3C1
:1001A00000800123237010BD8000002000000000AB
:1001B0002C47000808B5034B1BB103490348AFF3B4
:1001C000008008BD00000000840000202C470008CB
:1001D00080B584B000AF7860144B1B68002B02D14F
:1001E000124B134A1A60114B1B68FB607B68033388
:1001F00023F003037B600D4B1A687B6813440D4AA0
:10020000934207D903F00CFE03460C221A604FF00C
:10021000FF3306E0054B1A687B681344034A1360FA
:10022000FB6818461037BD4680BD00BF9C0000200B
:10023000342F012000FC01200FB480B582B000AF44
:1002400007F114033B603B683A6980210A4803F0D8
:1002500053FE78607B68002B05DD7B6819460648F5
:1002600000F00CF878607B6818460837BD46BDE89A
:10027000804004B0704700BFA000002080B582B06D
:1002800000AF786039603968786800F005F8034697
:1002900018460837BD4680BDB0B590B000AF786055
:1002A00039607A683B68134493F90030002B0BD116
:1002B00004233B637B68FB623C6BFD6A2046294656
:1002C000ABBE0446BC6237E03B68FB6331E0FB6BCE
:1002D000102B28BF10237B630023BB630EE07B68D9
:1002E00093F9001007F10C02BB6B13440A461A7015
:1002F000BB6B0133BB637B6801337B60BA6B7B6B89
:100300009A42ECD307F10C02BB6B134400221A7023
:1003100004237B6207F10C033B627C6A3D6A204642
:100320002946ABBE0446FC6100BFFA6B7B6BD31A57
:10033000FB63FB6B002BCAD13B6818464037BD46B8
:10034000B0BD000080B489B000AF78603960002390
:100350007B6100233B610023BB610023FB616BE1F8
:100360000122FB6902FA03F37B613B681B687A692F
:1003700013403B613A697B699A4240F05A813B687D
:100380005B68022B03D03B685B68122B23D1FB69AF
:10039000DA087B68083253F82230BB61FB6903F04E
:1003A00007039B000F2202FA03F3DB43BA691340F1
:1003B000BB613B681A69FB6903F007039B0002FA03
:1003C00003F3BA691343BB61FB69DA087B6808323F
:1003D000B96943F822107B681B68BB61FB695B004D
:1003E000032202FA03F3DB43BA691340BB613B68A3
:1003F0005B6803F00302FB695B0002FA03F3BA696E
:100400001343BB617B68BA691A603B685B68012B68
:100410000BD03B685B68022B07D03B685B68112BF5
:1004200003D03B685B68122B30D17B689B68BB6153
:10043000FB695B00032202FA03F3DB43BA69134052
:10044000BB613B68DA68FB695B0002FA03F3BA69D7
:100450001343BB617B68BA699A607B685B68BB6168
:100460000122FB6902FA03F3DB43BA691340BB6163
:100470003B685B681B0903F00102FB6902FA03F3A6
:10048000BA691343BB617B68BA695A607B68DB68F1
:10049000BB61FB695B00032202FA03F3DB43BA6929
:1004A0001340BB613B689A68FB695B0002FA03F387
:1004B000BA691343BB617B68BA69DA603B685B6801
:1004C00003F08053002B00F0B4800023FB605F4BEF
:1004D0005B6C5E4A43F4804353645C4B5B6C03F497
:1004E0008043FB60FB685A4AFB699B08023352F861
:1004F0002330BB61FB6903F003039B000F2202FA68
:1005000003F3DB43BA691340BB617B68514A9342F2
:100510002BD07B68504A934225D07B684F4A934248
:100520001FD07B684E4A934219D07B684D4A934254
:1005300013D07B684C4A93420DD07B684B4A934260
:1005400007D07B684A4A934201D107230EE0082373
:100550000CE006230AE0052308E0042306E0032359
:1005600004E0022302E0012300E00023FA6902F024
:10057000030292009340BA691343BB613449FB699B
:100580009B080233BA6941F823203A4B1B68BB61D0
:100590003B69DB43BA691340BB613B685B6803F4AA
:1005A0008033002B03D0BA693B691343BB61314AE6
:1005B000BB6913602F4B5B68BB613B69DB43BA6966
:1005C0001340BB613B685B6803F40033002B03D02E
:1005D000BA693B691343BB61264ABB695360254B2B
:1005E0009B68BB613B69DB43BA691340BB613B68F5
:1005F0005B6803F48013002B03D0BA693B69134393
:10060000BB611C4ABB6993601A4BDB68BB613B69E9
:10061000DB43BA691340BB613B685B6803F40013BA
:10062000002B03D0BA693B691343BB61114ABB6914
:10063000D360FB690133FB61FB690F2B7FF690AE42
:1006400000BF00BF2437BD4680BC70470038024061
:10065000003801400000024000040240000802404F
:10066000000C02400010024000140240001802403A
:10067000001C0240003C014080B483B000AF7860B1
:100680000B467B8013467B707B78002B03D07A88E7
:100690007B689A6103E07B881A047B689A6100BFDB
:1006A0000C37BD4680BC704780B483B000AF786023
:1006B0000B467B807B685A697B881A407B889A420C
:1006C00004D17B881A047B689A6102E07A887B688F
:1006D0009A6100BF0C37BD4680BC704780B588B0BA
:1006E00000AF786000237B6101F0BEFC3D4B1B68CE
:1006F000002B04D100F0BAF83A4B01221A607B6853
:10070000002B0ED008231A467B6813447B607B685D
:1007100003F00703002B04D07B6823F007030833A2
:100720007B607B68002B56D07B682F4A934252D85F
:100730002E4BBB612D4B1B68FB6104E0FB69BB6169
:10074000FB691B68FB61FB695B687A689A4203D9A5
:10075000FB691B68002BF1D1FB69254A93423AD013
:10076000BB691B68082213447B61FB691A68BB697B
:100770001A60FB695A687B68D31A082252009342B8
:1007800022D9FA697B681344FB60FB695A687B686D
:10079000D21AFB685A60FB697A685A60FB685B682A
:1007A000BB60124B3B6102E03B691B683B613B69EC
:1007B0001B685B68BA689A42F6D83B691A68FB689E
:1007C0001A603B69FA681A600A4B1A68FB695B6831
:1007D000D31A084A136001F055FC7B69184620378C
:1007E000BD4680BD302D0120F72B0100202D0120BA
:1007F000282D01200000002080B586B000AF786071
:100800007B683B617B68002B27D008235B423A69F9
:1008100013443B613B69FB6001F026FCFB685B68AD
:10082000BB60104B7B6102E07B691B687B617B696D
:100830001B685B68BA689A42F6D87B691A68FB68DD
:100840001A607B69FA681A60FB685A68064B1B6875
:100850001344054A136001F015FC00BF1837BD466C
:1008600080BD00BF202D01200000002080B483B097
:1008700000AF0E4B23F007037B600D4A7B681360CB
:100880000B4B00225A600B4B0B4A5A60094B00225B
:100890001A607B683B603B68074A5A603B68054AC0
:1008A0001A6000BF0C37BD4680BC7047280100208D
:1008B000202D0120282D0120F82B010080B485B0C7
:1008C00000AFF860B9607A60FB68043BFB60FB68CE
:1008D0004FF080721A60FB68043BFB60BB6823F03A
:1008E0000102FB681A60FB68043BFB60084AFB6876
:1008F0001A60FB68143BFB607A68FB681A60FB684F
:10090000203BFB60FB6818461437BD4680BC70472F
:100910001509000880B485B000AF00237B60124B3E
:100920001B68B3F1FF3F0AD04FF0050383F3118832
:10093000BFF36F8FBFF34F8FFB6000BFFEE74FF039
:10094000050383F31188BFF36F8FBFF34F8FBB6035
:1009500000BF00BF7B68002BFCD000BF00BF143776
:10096000BD4680BC704700BF0400002000000000AE
:10097000074B19680868B0E8F00F80F30988BFF3E7
:100980006F8F4FF0000080F311884EF00D0E70470E
:100990003C2D012000BF00BF06480068006880F3BE
:1009A000088862B661B6BFF34F8FBFF36F8F00DF69
:1009B00000BF000008ED00E000BF00BF80B586B0BA
:1009C00000AF3A4B7B617B691B78DBB2BB607B6914
:1009D000FF221A707B691B78DBB2FB71FB79DBB2FB
:1009E00003F00503DAB2324B1A70324B07221A6059
:1009F00009E0304B1B68013B2E4A1360FB79DBB2E8
:100A00005B00DBB2FB71FB79DBB203F08003802B70
:100A1000EFD0284B1B68C3F10703082B0AD04FF017
:100A2000050383F31188BFF36F8FBFF34F8F3B61D3
:100A300000BFFEE71F4B1B68C3F10703082B0AD05A
:100A40004FF0050383F31188BFF36F8FBFF34F8F10
:100A5000FB6000BFFEE7174B1B681B02154A1360C3
:100A6000144B1B6803F4E063124A1360BB68DAB2EC
:100A70007B691A70104B1B680F4A43F47023136094
:100A80000D4B1B680C4A43F07063136000F0B6F81E
:100A90000A4B00221A60FFF77FFF01F0A5FCFFF769
:100AA00039FF002318461837BD4680BD00E400E03A
:100AB000342D0120382D012020ED00E0040000201D
:100AC00080B483B000AF4FF0050383F31188BFF308
:100AD0006F8FBFF34F8F7B6000BF0F4B1B680133DD
:100AE0000D4A13600C4B1B68012B0FD10B4B1B687D
:100AF000DBB2002B0AD04FF0050383F31188BFF35C
:100B00006F8FBFF34F8F3B6000BFFEE700BF0C3716
:100B1000BD4680BC704700BF0400002004ED00E02B
:100B200080B483B000AF114B1B68002B0AD14FF08B
:100B3000050383F31188BFF36F8FBFF34F8F7B6083
:100B400000BFFEE7094B1B68013B084A1360074BD7
:100B50001B68002B05D100233B603B6883F31188A1
:100B600000BF00BF0C37BD4680BC704704000020AA
:100B7000EFF30980BFF36F8F0D4B1A6820E9F00F78
:100B800010602DE908404FF0050080F3118801F056
:100B90002BFC4FF0000080F31188BDE80840196875
:100BA0000868B0E8F00F80F30988BFF36F8F7047D3
:100BB0003C2D012000BF00BF80B582B000AF4FF0D8
:100BC000050383F31188BFF36F8FBFF34F8F7B60F3
:100BD00000BF01F055FB0346002B03D0064B4FF03E
:100BE00080521A6000233B603B6883F3118800BF8A
:100BF00000BF0837BD4680BD04ED00E080B400AF03
:100C00000A4B00221A600A4B00221A60094B1B682B
:100C1000094AA2FB03239B09084A013B1360034BCB
:100C200007221A6000BFBD4680BC704710E000E09C
:100C300018E000E018000020D34D621014E000E03E
:100C400080B485B000AFEFF30583FB60FB680F2B2A
:100C500014D9164AFB6813441B78FB72144B1B789B
:100C6000FA7A9A420AD24FF0050383F31188BFF350
:100C70006F8FBFF34F8F7B6000BFFEE70D4B1B688C
:100C800003F4E0620C4B1B689A420AD94FF005034B
:100C900083F31188BFF36F8FBFF34F8F3B6000BFAB
:100CA000FEE700BF1437BD4680BC7047F0E300E0AC
:100CB000342D01200CED00E0382D012080B483B0EC
:100CC00000AF78607B6803F108027B685A607B683C
:100CD0004FF0FF329A607B6803F108027B68DA60AC
:100CE0007B6803F108027B681A617B6800221A6046
:100CF00000BF0C37BD4680BC704780B483B000AFE6
:100D000078607B6800221A6100BF0C37BD4680BC4A
:100D1000704780B485B000AF786039607B685B68ED
:100D2000FB603B68FA685A60FB689A683B689A60A7
:100D3000FB689B683A685A60FB683A689A603B684F
:100D40007A681A617B681B685A1C7B681A6000BF4E
:100D50001437BD4680BC704780B485B000AF786062
:100D600039603B681B68BB60BB68B3F1FF3F03D1D0
:100D70007B681B69FB600CE07B680833FB6002E06A
:100D8000FB685B68FB60FB685B681B68BA689A423B
:100D9000F6D2FB685A683B685A603B685B683A6801
:100DA0009A603B68FA689A60FB683A685A603B68E8
:100DB0007A681A617B681B685A1C7B681A6000BFDE
:100DC0001437BD4680BC704780B485B000AF7860F2
:100DD0007B681B69FB607B685B687A6892689A60D5
:100DE0007B689B687A6852685A60FB685B687A68BF
:100DF0009A4203D17B689A68FB685A607B6800223C
:100E00001A61FB681B685A1EFB681A60FB681B6846
:100E100018461437BD4680BC7047000080B584B0CA
:100E200000AF786039607B68FB60FB68002B0AD1FB
:100E30004FF0050383F31188BFF36F8FBFF34F8F1C
:100E4000BB6000BFFEE7FFF73BFEFB681A68FB686C
:100E5000DB6BF968096C01FB03F31A44FB689A60C9
:100E6000FB6800229A63FB681A68FB685A60FB689B
:100E70001A68FB68DB6B013BF968096C01FB03F343
:100E80001A44FB68DA60FB68FF2283F84420FB68A1
:100E9000FF2283F845203B68002B14D1FB681B69B7
:100EA000002B1AD0FB681033184601F049FB0346AB
:100EB000002B12D00C4B4FF080521A60BFF34F8FB3
:100EC000BFF36F8F09E0FB6810331846FFF7F6FE9B
:100ED000FB6824331846FFF7F1FEFFF721FE0123DC
:100EE00018461037BD4680BD04ED00E080B58CB0DB
:100EF00002AFF860B9601346FB71FB68002B0AD1A2
:100F00004FF0050383F31188BFF36F8FBFF34F8F4B
:100F1000BB6100BFFEE7FB68BA6802FB03F37B62BC
:100F2000BB68002B06D07A6ABB68B2FBF3F3FA68A1
:100F30009A4201D1012300E00023002B0AD14FF097
:100F4000050383F31188BFF36F8FBFF34F8F7B616E
:100F500000BFFEE77B6A50331846FFF7BFFB3862DD
:100F60003B6A002B0DD03B6AFB61FB695033FB6190
:100F7000FA793B6A00931346FA69B968F86800F099
:100F800005F83B6A18462837BD4680BD80B584B059
:100F900000AFF860B9607A60FB70BB68002B03D1CA
:100FA000BB69BA691A6002E0BB697A681A60BB69FA
:100FB000FA68DA63BB69BA681A640121B869FFF795
:100FC0002DFFBB69FA7883F84C2000BF1037BD466F
:100FD00080BD000080B58EB000AFF860B9607A6067
:100FE0003B6000237B63FB683B633B6B002B0AD1B8
:100FF0004FF0050383F31188BFF36F8FBFF34F8F5B
:10100000BB6200BFFEE7BB68002B03D13B6B1B6CD0
:10101000002B01D1012300E00023002B0AD14FF067
:10102000050383F31188BFF36F8FBFF34F8F7B628C
:1010300000BFFEE73B68022B03D13B6BDB6B012B50
:1010400001D1012300E00023002B0AD14FF005035A
:1010500083F31188BFF36F8FBFF34F8F3B6200BFE5
:10106000FEE701F069FC0346002B02D17B68002BF0
:1010700001D1012300E00023002B0AD14FF005032A
:1010800083F31188BFF36F8FBFF34F8FFB6100BFF6
:10109000FEE7FFF715FD3B6B9A6B3B6BDB6B9A42F0
:1010A00002D33B68022B29D13A68B968386B00F04B
:1010B00019FAF8623B6B5B6A002B10D03B6B243350
:1010C000184601F03DFA0346002B13D03F4B4FF07A
:1010D00080521A60BFF34F8FBFF36F8F0AE0FB6A35
:1010E000002B07D0394B4FF080521A60BFF34F8F5F
:1010F000BFF36F8FFFF714FD012363E07B68002BC4
:1011000003D1FFF70DFD00235CE07B6B002B06D1C4
:1011100007F11403184601F077FA01237B63FFF708
:10112000FFFC00F0A1FFFFF7CBFC3B6B93F84430D2
:101130005BB2B3F1FF3F03D13B6B002283F8442045
:101140003B6B93F845305BB2B3F1FF3F03D13B6B90
:10115000002283F84520FFF7E3FC3A1D07F1140352
:101160001146184601F066FA0346002B24D1386B6D
:1011700000F0B0FA0346002B18D03B6B10337A68AE
:101180001146184601F08CF9386B00F03BFA00F07C
:1011900079FF0346002B7FF47CAF0C4B4FF080525D
:1011A0001A60BFF34F8FBFF36F8F72E7386B00F099
:1011B00029FA00F067FF6CE7386B00F023FA00F0C3
:1011C00061FF002318463837BD4680BD04ED00E0BE
:1011D00080B590B000AFF860B9607A603B60FB68A2
:1011E000BB63BB6B002B0AD14FF0050383F311885F
:1011F000BFF36F8FBFF34F8FBB6200BFFEE7BB68CB
:10120000002B03D1BB6B1B6C002B01D1012300E031
:101210000023002B0AD14FF0050383F31188BFF39D
:101220006F8FBFF34F8F7B6200BFFEE73B68022BDF
:1012300003D1BB6BDB6B012B01D1012300E0002349
:10124000002B0AD14FF0050383F31188BFF36F8F92
:10125000BFF34F8F3B6200BFFEE7FFF7F1FCEFF3F8
:1012600011824FF0050383F31188BFF36F8FBFF333
:101270004F8FFA61BB61FB697B63BB6B9A6BBB6B86
:10128000DB6B9A4202D33B68022B3ED1BB6B93F8D7
:10129000453087F83330BB6B9B6BFB623A68B968AB
:1012A000B86B00F01FF997F93330B3F1FF3F12D15B
:1012B000BB6B5B6A002B25D0BB6B2433184601F057
:1012C0003FF90346002B1DD07B68002B1AD07B68AA
:1012D00001221A6016E097F933307F2B0AD14FF0C4
:1012E000050383F31188BFF36F8FBFF34F8F7B61CB
:1012F00000BFFEE797F833300133DBB25AB2BB6B65
:1013000083F845200123FB6301E00023FB637B6B33
:101310003B613B6983F3118800BFFB6B1846403784
:10132000BD4680BD80B58CB000AFF860B9607A6012
:101330000023FB62FB68BB62BB6A002B0AD14FF043
:10134000050383F31188BFF36F8FBFF34F8F3B62A9
:1013500000BFFEE7BB68002B03D1BB6A1B6C002BF0
:1013600001D1012300E00023002B0AD14FF0050337
:1013700083F31188BFF36F8FBFF34F8FFB6100BF03
:10138000FEE701F0D9FA0346002B02D17B68002B5F
:1013900001D1012300E00023002B0AD14FF0050307
:1013A00083F31188BFF36F8FBFF34F8FBB6100BF13
:1013B000FEE7FFF785FBBB6A9B6B7B627B6A002BBA
:1013C0001FD0B968B86A00F0F7F87B6A5A1EBB6A8A
:1013D0009A63BB6A1B69002B0FD0BB6A1033184697
:1013E00001F0AEF80346002B07D03D4B4FF0805282
:1013F0001A60BFF34F8FBFF36F8FFFF791FB01238D
:1014000069E07B68002B03D1FFF78AFB002362E0D1
:10141000FB6A002B06D107F11003184601F0F4F81F
:101420000123FB62FFF77CFB00F01EFEFFF748FB89
:10143000BB6A93F844305BB2B3F1FF3F03D1BB6AA0
:10144000002283F84420BB6A93F845305BB2B3F1C5
:10145000FF3F03D1BB6A002283F84520FFF760FB02
:101460003A1D07F110031146184601F0E3F8034650
:10147000002B23D1B86A00F017F90346002B17D0D0
:10148000BB6A24337A681146184601F009F8B86A35
:1014900000F0B8F800F0F6FD0346002B89D1104BA0
:1014A0004FF080521A60BFF34F8FBFF36F8F80E70A
:1014B000B86A00F0A7F800F0E5FD7AE7B86A00F036
:1014C000A1F800F0DFFDB86A00F0EEF80346002B4B
:1014D0003FF46FAF002318463037BD4680BD00BFD4
:1014E00004ED00E080B586B000AFF860B9607A60C6
:1014F00000237B61FB689B6B3B61FB681B6C002BD3
:101500000DD1FB681B68002B4DD1FB689B6818460A
:1015100001F030FA7861FB6800229A6043E07B6852
:10152000002B19D1FB685868FB681B6C1A46B96818
:1015300002F0A0FCFB685A68FB681B6C1A44FB684D
:101540005A60FB685A68FB689B689A422BD3FB6819
:101550001A68FB685A6026E0FB68D868FB681B6C59
:101560001A46B96802F086FCFB68DA68FB681B6CF7
:101570005B421A44FB68DA60FB68DA68FB681B6848
:101580009A4207D2FB689A68FB681B6C5B421A445C
:10159000FB68DA607B68022B05D13B69002B02D027
:1015A0003B69013B3B613B695A1CFB689A637B6961
:1015B00018461837BD4680BD80B582B000AF786050
:1015C00039607B681B6C002B18D07B68DA687B68FD
:1015D0001B6C1A447B68DA607B68DA687B689B68FE
:1015E0009A4203D37B681A687B68DA607B68D968A3
:1015F0007B681B6C1A46386802F03CFC00BF083759
:10160000BD4680BD80B584B000AF7860FFF758FA62
:101610007B6893F84530FB7311E07B685B6A002BB5
:1016200012D07B682433184600F08AFF0346002B53
:1016300001D001F065F8FB7B013BDBB2FB7397F94E
:101640000F30002BE9DC00E000BF7B68FF2283F84D
:101650004520FFF765FAFFF733FA7B6893F84430CB
:10166000BB7311E07B681B69002B12D07B681033C1
:10167000184600F065FF0346002B01D001F040F84A
:10168000BB7B013BDBB2BB7397F90E30002BE9DC6F
:1016900000E000BF7B68FF2283F84420FFF740FA98
:1016A00000BF1037BD4680BD80B584B000AF786004
:1016B000FFF706FA7B689B6B002B02D10123FB60CE
:1016C00001E00023FB60FFF72BFAFB681846103798
:1016D000BD4680BD80B584B000AF7860FFF7F0F9FB
:1016E0007B689A6B7B68DB6B9A4202D10123FB60BB
:1016F00001E00023FB60FFF713FAFB681846103780
:10170000BD4680BD80B485B000AF786039600023ED
:10171000FB6014E00E4AFB6852F83330002B0BD10B
:101720000B49FB683A6841F83320094AFB68DB0043
:1017300013447A685A6006E0FB680133FB60FB687B
:10174000072BE7D900BF00BF1437BD4680BC7047E8
:10175000E82E012080B586B000AFF860B9607A60ED
:10176000FB687B61FFF7ACF97B6993F844305BB2AF
:10177000B3F1FF3F03D17B69002283F844207B69EA
:1017800093F845305BB2B3F1FF3F03D17B69002290
:1017900083F84520FFF7C4F97B699B6B002B06D1CA
:1017A0007B6924337A68B968184600F09DFE786931
:1017B000FFF728FF00BF1837BD4680BD80B58CB04D
:1017C00004AFF860B9603B601346FB80FB889B0068
:1017D0001846FEF783FF78617B69002B0ED06020EE
:1017E000FEF77CFFF861FB69002B03D0FB697A6987
:1017F0001A6305E07869FEF7FFFF01E00023FB6153
:10180000FB69002B13D0FA8800230393FB69029332
:10181000FB6A0193BB6A00933B68B968F86800F003
:101820000EF8F86900F0AAF80123BB6102E04FF05E
:10183000FF33BB61BB6918462037BD4680BD80B50C
:1018400088B000AFF860B9607A603B603B6B186BA2
:101850007B689B001A46A52102F01AFB3B6B1A6BB2
:101860007B6803F18043013B9B001344BB61BB6970
:1018700023F00703BB61BB6903F00703002B0AD009
:101880004FF0050383F31188BFF36F8FBFF34F8FC2
:101890007B6100BFFEE7BB68002B21D00023FB610A
:1018A00014E0BA68FB69134493F900103A6BFB69C2
:1018B000134434330A461A70BA68FB69134493F927
:1018C0000030002B06D0FB690133FB61FB690F2B55
:1018D000E7D900E000BF3B6B002283F8432003E020
:1018E0003B6B002283F83420BB6A042B01D904230C
:1018F000BB623B6BBA6ADA623B6BBA6ADA643B6B17
:1019000000221A653B6B04331846FFF7F6F93B6B70
:1019100018331846FFF7F1F93B6B3A6B1A61BB6A53
:10192000C3F105023B6B9A613B6B3A6B5A623B6BAE
:10193000543304220021184602F0AAFA3B6B5833B4
:1019400004220021184602F0A3FA3B6B5C3301220B
:101950000021184602F09CFA3A68F968B869FEF767
:10196000ADFF02463B6B1A60FB6A002B02D0FB6A9C
:101970003A6B1A6000BF2037BD4680BD80B582B08B
:1019800000AF7860FFF79CF82D4B1B6801332C4AA1
:1019900013602C4B1B68002B09D12A4A7B6813600B
:1019A000274B1B68012B10D100F020FF0DE0264BC8
:1019B0001B68002B09D1234B1B68DA6A7B68DB6A42
:1019C0009A4202D81F4A7B681360204B1B68013380
:1019D0001E4A13601D4B1A687B685A647B68DA6A7A
:1019E0001B4B1B689A4203D97B68DB6A184A136059
:1019F0007B68DA6A13469B0013449B00154A1A441D
:101A00007B68043319461046FFF783F9FFF788F81F
:101A10000D4B1B68002B0ED00A4B1B68DA6A7B68E3
:101A2000DB6A9A4207D20C4B4FF080521A60BFF328
:101A30004F8FBFF36F8F00BF0837BD4680BD00BF1B
:101A4000142E01203C2D0120202E0120302E0120BB
:101A50001C2E0120402D012004ED00E080B584B053
:101A600000AF7860FFF72CF87B68002B02D12C4B7D
:101A70001B6800E07B68FB60FB6804331846FFF7D7
:101A8000A3F9FB689B6A002B04D0FB681833184647
:101A9000FFF79AF9234B1B680133224A1360204B4E
:101AA0001B68FA689A420BD1FB68043319461E483A
:101AB000FFF72FF91D4B1B6801331C4A136009E027
:101AC0001B4B1B68013B1A4A1360F86800F0FCFED0
:101AD00000F00AFFFFF724F8164B1B68002B1BD001
:101AE0000F4B1B68FA689A4216D1134B1B68002BE8
:101AF0000AD04FF0050383F31188BFF36F8FBFF354
:101B00004F8FBB6000BFFEE70C4B4FF080521A6056
:101B1000BFF34F8FBFF36F8F00BF1037BD4680BD3F
:101B20003C2D0120302E0120E82D0120FC2D01202C
:101B3000142E0120202E01203C2E012004ED00E077
:101B400080B58AB000AF7860396000237B627B6823
:101B5000002B0AD14FF0050383F31188BFF36F8F79
:101B6000BFF34F8F7B6100BFFEE73B68002B0AD1BC
:101B70004FF0050383F31188BFF36F8FBFF34F8FCF
:101B80003B6100BFFEE72A4B1B68002B0AD04FF0D9
:101B9000050383F31188BFF36F8FBFF34F8FFB6093
:101BA00000BFFEE700F060FA224B1B683B627B68D7
:101BB0001B683A681344FB617B681B683A6A9A4267
:101BC0000BD27B681B68FA699A4211D2FA693B6AA8
:101BD0009A420DD901237B620AE07B681B68FA698F
:101BE0009A4203D3FA693B6A9A4201D901237B6284
:101BF0007B68FA691A607B6A002B06D0FA693B6A37
:101C0000D31A0021184601F039F800F03BFAB86108
:101C1000BB69002B07D1084B4FF080521A60BFF30D
:101C20004F8FBFF36F8F00BF2837BD4680BD00BF09
:101C30003C2E0120182E012004ED00E080B584B078
:101C400000AF7860FEF73CFF7B68002B02D1074BAA
:101C50001B6800E07B68FB60FB68DB6ABB60FEF72B
:101C60005FFFBB6818461037BD4680BD3C2D012084
:101C700080B588B000AF786039600023FB613B68B5
:101C8000042B0AD94FF0050383F31188BFF36F8F3C
:101C9000BFF34F8FFB6000BFFEE73B68042B01D909
:101CA00004233B60FEF70CFF7B68002B02D13B4B0B
:101CB0001B6800E07B68BB61BB69DB6C7B617A6998
:101CC0003B689A4263D03A687B699A420DD9334B9C
:101CD0001B68BA699A420FD0304B1B68DB6A3A68BE
:101CE0009A4209D30123FB6106E02C4B1B68BA69B9
:101CF0009A4201D10123FB61BB69DB6A3B61BB698D
:101D0000DA6CBB69DB6A9A4202D1BB693A68DA6273
:101D1000BB693A68DA64BB699B69002B04DB3B68EA
:101D2000C3F10502BB699A61BB6959693A691346F7
:101D30009B0013449B001A4A134499421CD1BB696F
:101D400004331846FFF740F8BB69DA6A154B1B6885
:101D50009A4203D9BB69DB6A124A1360BB69DA6A2B
:101D600013469B0013449B000D4A1A44BB6904337D
:101D700019461046FEF7CDFFFB69002B07D00A4B32
:101D80004FF080521A60BFF34F8FBFF36F8FFEF793
:101D9000C7FE00BF2037BD4680BD00BF3C2D0120DF
:101DA000402D01201C2E012004ED00E080B586B0FE
:101DB00000AF7860FEF784FE7B68002B02D1364BC3
:101DC0001B6800E07B683B613B6904331846FEF703
:101DD000FBFF3B699B6A002B04D03B691833184614
:101DE000FEF7F2FF3B69043319462C48FEF791FFDA
:101DF00000237B6110E03A697B6913445C331B78F4
:101E0000DBB2012B05D13A697B6913445C330022B4
:101E10001A707B6901337B617B69002BEBDDFEF778
:101E20007FFE1F4B1B68002B05D0FEF749FE00F01C
:101E30005BFDFEF775FE184B1B683A699A4227D185
:101E4000174B1B68002B17D0164B1B68002B0AD0B2
:101E50004FF0050383F31188BFF36F8FBFF34F8FEC
:101E6000FB6000BFFEE7104B4FF080521A60BFF3DB
:101E70004F8FBFF36F8F0BE0084B1A680B4B1B683B
:101E80009A4203D1044B00221A6001E000F0ACFA40
:101E900000BF1837BD4680BD3C2D0120002E01201B
:101EA000202E01203C2E012004ED00E0142E012004
:101EB00080B487B000AF786000237B617B683B61B2
:101EC0007B68002B0AD14FF0050383F31188BFF321
:101ED0006F8FBFF34F8FFB6000BFFEE73B695B690D
:101EE000094A93420AD13B699B6A084A934205D04A
:101EF0003B699B6A002B01D101237B617B691846FA
:101F00001C37BD4680BC7047002E0120D42D012017
:101F100080B584B000AF78607B68FB607B68002B85
:101F20000AD14FF0050383F31188BFF36F8FBFF31E
:101F30004F8FBB6000BFFEE7204B1B68FA689A42D8
:101F400038D0FB68002B35D0FEF7BAFDF868FFF7F4
:101F5000AFFF0346002B2BD0FB6804331846FEF777
:101F600033FFFB68DA6A164B1B689A4203D9FB6899
:101F7000DB6A134A1360FB68DA6A13469B0013445A
:101F80009B00104A1A44FB68043319461046FEF7BA
:101F9000C0FEFB68DA6A094B1B68DB6A9A4207D30A
:101FA000094B4FF080521A60BFF34F8FBFF36F8F12
:101FB000FEF7B6FD00BF1037BD4680BD3C2D0120A9
:101FC0001C2E0120402D012004ED00E080B586B0DC
:101FD00002AF1F4B019300230093002382221D496F
:101FE0001D48FFF7EBFBF860FB68012B02D100F006
:101FF00099FEF860FB68012B16D14FF0050383F3BF
:102000001188BFF36F8FBFF34F8FBB6000BF134BBF
:102010004FF0FF321A60124B01221A60114B00225E
:102020001A60FEF7CBFC0EE0FB68B3F1FF3F0AD16C
:102030004FF0050383F31188BFF36F8FBFF34F8F0A
:102040007B6000BFFEE700BF1037BD4680BD00BF0C
:10205000382E01204447000819270008342E01209B
:10206000202E0120182E012080B400AF044B1B68E5
:102070000133034A136000BFBD4680BC704700BFF8
:102080003C2E012080B584B000AF0023FB6000230C
:10209000BB60424B1B68002B0AD14FF0050383F352
:1020A0001188BFF36F8FBFF34F8F3B6000BFFEE718
:1020B000FEF706FD394B1B68013B384A1360374B6E
:1020C0001B68002B62D1364B1B68002B5ED02FE0C3
:1020D000344BDB68DB68FB60FB6818331846FEF79F
:1020E00073FEFB6804331846FEF76EFEFB68DA6A7F
:1020F0002D4B1B689A4203D9FB68DB6A2A4A13609E
:10210000FB68DA6A13469B0013449B00274A1A4473
:10211000FB68043319461046FEF7FBFDFB68DA6ADC
:10212000234B1B68DB6A9A4202D3224B01221A60BE
:102130001C4B1B68002BCBD1FB68002B01D000F09F
:10214000D3FB1D4B1B687B607B68002B10D000F01D
:1021500097F80346002B02D0164B01221A607B68C9
:10216000013B7B607B68002BF1D1134B00221A608E
:10217000104B1B68002B09D00123BB600F4B4FF0A5
:1021800080521A60BFF34F8FBFF36F8FFEF7C8FC0A
:10219000BB6818461037BD4680BD00BF3C2E0120ED
:1021A000142E0120D42D01201C2E0120402D0120B1
:1021B0003C2D0120282E0120242E012004ED00E0DA
:1021C00080B483B000AF044B1B687B607B6818460B
:1021D0000C37BD4680BC7047182E012080B582B0F8
:1021E00000AFFEF72DFD00237B60044B1B683B60B6
:1021F0003B6818460837BD4680BD00BF182E012039
:1022000080B485B000AF78607B68002B02D10D4BA5
:102210001B6800E07B68FB60FB68002B0AD14FF075
:10222000050383F31188BFF36F8FBFF34F8FBB603C
:1022300000BFFEE7FB68343318461437BD4680BC48
:10224000704700BF3C2D012080B483B000AF0B4B22
:102250001B68002B0AD14FF0050383F31188BFF3ED
:102260006F8FBFF34F8F7B6000BFFEE7034B1B6890
:1022700018460C37BD4680BC704700BF382E012081
:1022800080B586B000AF00237B614C4B1B68002BF0
:1022900040F087804A4B1B6801333B61484A3B69E9
:1022A00013603B69002B20D1464B1B681B68002B39
:1022B0000AD04FF0050383F31188BFF36F8FBFF38C
:1022C0004F8F3B6000BFFEE73E4B1B68FB603E4B01
:1022D0001B683C4A13603C4AFB6813603B4B1B681D
:1022E00001333A4A136000F0FFFA394B1B683A6930
:1022F0009A4249D3334B1B681B68002B04D1344BE3
:102300004FF0FF321A603FE02E4B1B68DB68DB6842
:10231000BB60BB685B687B603A697B689A4203D2AA
:102320002B4A7B6813602FE0BB6804331846FEF726
:102330004BFDBB689B6A002B04D0BB681833184662
:10234000FEF742FDBB68DA6A224B1B689A4203D94A
:10235000BB68DB6A1F4A1360BB68DA6A13469B00DE
:1023600013449B001C4A1A44BB68043319461046A8
:10237000FEF7CFFCBB68DA6A184B1B68DB6A9A422F
:10238000B8D301237B61B5E7154B1B68002B01D146
:1023900001F004FB134B1B68002B09D001237B6168
:1023A00006E00F4B1B6801330D4A136001F0F6FA8B
:1023B0007B6918461837BD4680BD00BF3C2E012002
:1023C000182E0120CC2D0120D02D01202C2E0120F3
:1023D000342E01201C2E0120402D01203C2D0120F7
:1023E000242E0120282E012080B485B000AF274B79
:1023F0001B68002B03D0264B01221A6041E0244BBE
:1024000000221A60234B1B68FB6010E0FB68002B66
:102410000AD14FF0050383F31188BFF36F8FBFF329
:102420004F8F7B6000BFFEE7FB68013BFB601A49F2
:10243000FA6813469B0013449B000B441B68002B57
:10244000E4D0FA6813469B0013449B00124A1344DD
:10245000BB60BB685B685A68BB685A60BB685A68F7
:10246000BB6808339A4204D1BB685B685A68BB6892
:102470005A60BB685B68DB68084A1360054AFB6802
:10248000136000BF1437BD4680BC70473C2E01204E
:10249000282E01201C2E0120402D01203C2D012042
:1024A00080B584B000AF786039607B68002B0AD1BA
:1024B0004FF0050383F31188BFF36F8FBFF34F8F86
:1024C000FB6000BFFEE7074B1B68183319467868AE
:1024D000FEF742FC0121386800F0D0FB00BF103746
:1024E000BD4680BD3C2D012080B586B000AFF860B0
:1024F000B9607A60FB68002B0AD14FF0050383F3C3
:102500001188BFF36F8FBFF34F8F7B6100BFFEE772
:102510000A4B1B6818331946F868FEF7FAFB7B680C
:10252000002B02D04FF0FF33BB607968B86800F031
:10253000A5FB00BF1837BD4680BD00BF3C2D012064
:1025400080B586B000AF78607B68DB68DB683B6194
:102550003B69002B0AD14FF0050383F31188BFF3C9
:102560006F8FBFF34F8FFB6000BFFEE73B691833EF
:102570001846FEF729FC1E4B1B68002B1DD13B693A
:1025800004331846FEF720FC3B69DA6A194B1B68D6
:102590009A4203D93B69DB6A164A13603B69DA6ADF
:1025A00013469B0013449B00134A1A443B690433AF
:1025B00019461046FEF7ADFB05E03B691833194696
:1025C0000E48FEF7A6FB3B69DA6A0D4B1B68DB6A17
:1025D0009A4205D901237B610A4B01221A6001E06E
:1025E00000237B617B6918461837BD4680BD00BF5C
:1025F0003C2E01201C2E0120402D0120D42D012035
:102600003C2D0120282E012080B483B000AF7860DB
:10261000064B1A687B681A60054B1A687B685A601B
:1026200000BF0C37BD4680BC704700BF2C2E012078
:10263000182E012080B588B000AF786039607B68C3
:10264000002B0AD14FF0050383F31188BFF36F8F7E
:10265000BFF34F8F3B6100BFFEE73B68002B0AD101
:102660004FF0050383F31188BFF36F8FBFF34F8FD4
:10267000FB6000BFFEE7FEF723FA1F4B1B68BB6140
:102680007B685B68BA69D31A7B613B681B68B3F1EE
:10269000FF3F02D10023FB6126E07B681A68174BDD
:1026A0001B689A420AD07B685B68BA699A4205D374
:1026B0000123FB613B6800221A6015E03B681B6840
:1026C0007A699A420BD23B681A687B69D21A3B68D6
:1026D0001A607868FFF798FF0023FB6104E03B680D
:1026E00000221A600123FB61FEF71AFAFB69184603
:1026F0002037BD4680BD00BF182E01202C2E0120A2
:1027000080B400AF034B01221A6000BFBD4680BCFD
:10271000704700BF282E012080B582B000AF7860DE
:1027200000F0A4F8064B1B68012BF9D9054B4FF0BC
:1027300080521A60BFF34F8FBFF36F8FF0E700BF77
:10274000402D012004ED00E080B487B000AFF860B8
:10275000B9607A60BB68002B1CDCFB68002B02D1DF
:102760000F4B1B6800E0FB687B617B69002B0AD183
:102770004FF0050383F31188BFF36F8FBFF34F8FC3
:102780003B6100BFFEE77A69BB6814339B001344CA
:102790007A685A6000BF1C37BD4680BC704700BFD6
:1027A0003C2D012080B485B000AF786039600023F3
:1027B000FB603B68002B0FDC7B68002B02D10A4BCF
:1027C0001B6800E07B68BB60BA683B6814339B0001
:1027D00013445B68FB6001E00023FB60FB68184664
:1027E0001437BD4680BC70473C2D012080B582B0B7
:1027F00000AF00237B600CE07A6813469B00134413
:102800009B00124A13441846FEF758FA7B680133BE
:102810007B607B68042BEFD90D48FEF74FFA0D481B
:10282000FEF74CFA0C48FEF749FA0C48FEF746FA58
:102830000B48FEF743FA0B4B054A1A600A4B054A50
:102840001A6000BF0837BD4680BD00BF402D012083
:10285000A42D0120B82D0120D42D0120E82D012028
:10286000002E0120CC2D0120D02D012080B582B07A
:1028700000AF19E0FEF724F9104BDB68DB687B60E2
:102880007B6804331846FEF79FFA0D4B1B68013B2B
:102890000B4A13600B4B1B68013B0A4A1360FEF79F
:1028A0003FF9786800F010F8064B1B68002BE1D167
:1028B00000BF00BF0837BD4680BD00BFE82D012026
:1028C000142E0120FC2D012080B582B000AF78606D
:1028D0007B681B6B1846FDF78FFF7868FDF78CFF50
:1028E00000BF0837BD4680BD80B400AF094B1B68F0
:1028F0001B68002B04D1084B4FF0FF321A6005E033
:10290000044B1B68DB681B68034A136000BFBD46AD
:1029100080BC7047CC2D0120342E012080B483B0C0
:1029200000AF044B1B687B607B6818460C37BD46C4
:1029300080BC70473C2D012080B483B000AF0B4BAE
:102940001B68002B02D101237B6008E0084B1B6849
:10295000002B02D102237B6001E000237B607B68B7
:1029600018460C37BD4680BC704700BF202E0120A2
:102970003C2E012080B586B000AF78607B683B615B
:1029800000237B617B68002B56D02E4B1B683A6975
:102990009A420AD04FF0050383F31188BFF36F8F7B
:1029A000BFF34F8FFB6000BFFEE73B691B6D002B41
:1029B0000AD14FF0050383F31188BFF36F8FBFF384
:1029C0004F8FBB6000BFFEE73B691B6D5A1E3B6922
:1029D0001A653B69DA6A3B69DB6C9A422CD03B6929
:1029E0001B6D002B28D13B6904331846FEF7ECF928
:1029F0003B69DA6C3B69DA623B69DB6AC3F1050269
:102A00003B699A613B69DA6A0F4B1B689A4203D9AA
:102A10003B69DB6A0C4A13603B69DA6A13469B0028
:102A200013449B00094A1A443B6904331946104673
:102A3000FEF76FF901237B617B6918461837BD46A5
:102A400080BD00BF3C2D01201C2E0120402D012007
:102A500080B586B000AFF860B9607A60FB68002B83
:102A60000AD04FF0050383F31188BFF36F8FBFF3D4
:102A70004F8F3B6100BFFEE7FEF722F8264B1B6835
:102A8000FA68163253F82230002B15D1224B1A68FF
:102A9000FB6813445C3301221A707B68002B0BD057
:102AA0000121786800F0EAF81C4B4FF080521A6060
:102AB000BFF34F8FBFF36F8FFEF732F8FEF700F8CA
:102AC000154B1B68FA68163253F822307B617B691C
:102AD000002B12D0BB68002B07D00F4B1B68FA6885
:102AE0001632002143F8221007E00B4B1B687A696D
:102AF000511EFA68163243F82210074B1A68FB6819
:102B000013445C3300221A70FEF70AF87B691846FA
:102B10001837BD4680BD00BF3C2D012004ED00E00C
:102B200080B58EB000AFF860B9607A60FB68002BAA
:102B30000AD14FF0050383F31188BFF36F8FBFF302
:102B40004F8FBB6200BFFEE7BB68002B0AD04FF07F
:102B5000050383F31188BFF36F8FBFF34F8F7B6241
:102B600000BFFEE7FEF76CF8FB687B63EFF31182B2
:102B70004FF0050383F31188BFF36F8FBFF34F8FBF
:102B80003A62FB613B6A3B637A6BBB6813445C331C
:102B90001B7887F82F307A6BBB6813445C330222B2
:102BA0001A707B6BBA68163253F82230591C7B6B53
:102BB000BA68163243F8221097F82F30012B46D10D
:102BC0007B6B9B6A002B0AD04FF0050383F31188BF
:102BD000BFF36F8FBFF34F8FBB6100BFFEE7214B89
:102BE0001B68002B1DD17B6B04331846FEF7ECF8F5
:102BF0007B6BDA6A1C4B1B689A4203D97B6BDB6ADE
:102C0000194A13607B6BDA6A13469B0013449B00DE
:102C1000164A1A447B6B043319461046FEF779F8BE
:102C200005E07B6B183319461148FEF772F87B6B91
:102C3000DA6A104B1B68DB6A9A4208D97B68002B62
:102C400002D07B6801221A600B4B01221A603B6B99
:102C50007B617B6983F3118800BF00BF3837BD46B5
:102C600080BD00BF3C2E01201C2E0120402D0120E4
:102C7000D42D01203C2D0120282E012080B584B0C8
:102C800000AF78603960214B1B68FB60204B1B68EC
:102C900004331846FEF798F87B68B3F1FF3F0AD17A
:102CA0003B68002B07D01A4B1B68043319461948A0
:102CB000FEF72FF826E0FA687B681344BB60144BDC
:102CC0001B68BA685A60BA68FB689A4209D2124B0C
:102CD0001A680F4B1B68043319461046FEF73CF880
:102CE00010E00E4B1A680A4B1B6804331946104655
:102CF000FEF732F80A4B1B68BA689A4202D2084AB9
:102D0000BB68136000BF1037BD4680BD182E012080
:102D10003C2D0120002E0120D02D0120CC2D0120A2
:102D2000342E012080B584B002AF00237B6000F018
:102D3000D3FA114B1B68002B0BD0104B01930223CD
:102D4000009300234FF482720D490E48FEF736FDC2
:102D500078607B68002B0AD14FF0050383F311885C
:102D6000BFF36F8FBFF34F8F3B6000BFFEE77B6801
:102D700018460837BD4680BD702E0120742E0120F4
:102D80004C470008BD2E000880B58AB000AFF8603F
:102D9000B9607A603B6000237B62FB68002B0AD13C
:102DA0004FF0050383F31188BFF36F8FBFF34F8F8D
:102DB0003B6200BFFEE71A4B1B68002B2AD0BB68A2
:102DC0007B617B68BB61FB68FB61BB68052B18DC22
:102DD000FFF7B2FD0346022B09D1114B186807F12A
:102DE000140100233A6BFEF7F5F8786212E00C4B01
:102DF000186807F1140100230022FEF7EBF878624F
:102E000008E0074B186807F1140100233A68FEF741
:102E1000DFF978627B6A18462837BD4680BD00BF5F
:102E2000702E012080B588B002AF78603960224BE7
:102E30001B68DB68DB687B617B6904331846FDF740
:102E4000C3FF7B6993F8283003F00403002B22D0E2
:102E50007B699A697B68D1187B683A68786900F069
:102E6000CFF80346002B1FD00023009300237A687D
:102E700000217869FFF788FF38613B69002B13D187
:102E80004FF0050383F31188BFF36F8FBFF34F8FAC
:102E9000FB6000BFFEE77B6993F8283023F0010355
:102EA000DAB27B6983F828207B691B6A78699847C6
:102EB00000BF1837BD4680BD682E012080B584B0A4
:102EC00000AF786007F10803184600F057F8F86083
:102ED000BB681946F86800F003F800F0D3F8F1E792
:102EE00080B584B000AF78603960FFF7BDF807F1B6
:102EF0000803184600F064F8F860BB68002B30D176
:102F00003B68002B0AD17A68FB689A4206D8FFF723
:102F1000B9F8F9687868FFF785FF24E03B68002B73
:102F200008D0134B1B681B68002B01D1012300E064
:102F300000233B600F4B18687A68FB68D31A3A6825
:102F40001946FEF707FCFFF79DF80346002B0AD150
:102F5000094B4FF080521A60BFF34F8FBFF36F8F52
:102F600001E0FFF78FF800BF1037BD4680BD00BFFE
:102F70006C2E0120702E012004ED00E080B485B09D
:102F800000AF78600D4B1B681B68002B01D101223C
:102F900000E000227B681A607B681B68002B05D16B
:102FA000064B1B68DB681B68FB6001E00023FB60CD
:102FB000FB6818461437BD4680BC7047682E012058
:102FC00080B584B000AF7860FFF7FAF8F8600B4B7B
:102FD0001B68FA689A4205D200F01AF97B68012250
:102FE0001A6002E07B6800221A60044AFB681360E2
:102FF000FB6818461037BD4680BD00BF782E012003
:1030000080B586B000AFF860B9607A603B6000239D
:103010007B61FB68BA685A60FB68FA681A61BA6833
:103020007B689A4212D87A683B68D21AFB689B691F
:103030009A4202D301237B611BE0104B1A68FB68A4
:10304000043319461046FDF787FE12E07A683B68A4
:103050009A4206D2BA683B689A4202D301237B6146
:1030600007E0074B1A68FB68043319461046FDF762
:1030700073FE7B6918461837BD4680BD6C2E012053
:10308000682E012080B58CB002AFAEE0BB68002B8B
:10309000C0F2AA803B697B627B6A5B69002B04D02B
:1030A0007B6A04331846FDF78FFE3B1D1846FFF779
:1030B00087FF3862BB68092B00F2978001A252F8A3
:1030C00023F000BFED300008ED300008ED300008BF
:1030D0006131000875310008BF310008ED3000088B
:1030E000ED30000861310008753100087B6A93F803
:1030F000283043F00103DAB27B6A83F82820FA68AB
:103100007B6A9B69D118FB683A6A786AFFF778FF97
:103110000346002B69D07B6A1B6A786A98477B6AF2
:1031200093F8283003F00403002B5ED0FA687B6A22
:103130009B691A440023009300230021786AFFF75B
:1031400023FEF861FB69002B4FD14FF0050383F399
:103150001188BFF36F8FBFF34F8FBB6100BFFEE7D6
:103160007B6A93F8283023F00103DAB27B6A83F894
:1031700028203AE07B6A93F8283043F00103DAB262
:103180007B6A83F82820FA687B6A9A617B6A9B696C
:10319000002B0AD14FF0050383F31188BFF36F8F23
:1031A000BFF34F8F7B6100BFFEE77B6A9A693B6A82
:1031B000D1183B6A3A6A786AFFF722FF15E07B6A0A
:1031C00093F8283003F00203002B03D1786AFDF74F
:1031D00013FB0AE07B6A93F8283023F00103DAB28C
:1031E0007B6A83F8282000E000BF084B1B6807F1CA
:1031F000080100221846FEF795F80346002B7FF4DD
:1032000045AF00BF00BF2837BD4680BD702E0120EE
:1032100080B588B002AF48E02D4B1B68DB681B68A7
:103220003B612B4B1B68DB68DB68FB60FB6804338E
:103230001846FDF7C9FDFB681B6AF8689847FB68EC
:1032400093F8283003F00403002B2ED0FB689B6911
:103250003A691344BB60BA683B699A420ED9FB686D
:10326000BA685A60FB68FA681A61194B1A68FB68F9
:10327000043319461046FDF76FFD16E00023009356
:1032800000233A690021F868FFF77EFD78607B68CB
:10329000002B0AD14FF0050383F31188BFF36F8F22
:1032A000BFF34F8F3B6000BFFEE7094B1B681B68F5
:1032B000002BB1D1064B1B687B61064B1B68044A8F
:1032C0001360044A7B69136000BF1837BD4680BD98
:1032D000682E01206C2E012080B500AFFDF7F0FBB9
:1032E000124B1B68002B1DD11148FDF7E7FC11485C
:1032F000FDF7E4FC104B0E4A1A60104B0D4A1A60A1
:1033000000220C210A20FDF7F1FD0346074A136055
:10331000064B1B68002B05D0044B1B680849184658
:10332000FEF7F0F9FDF7FCFB00BF80BD702E012019
:10333000402E0120542E0120682E01206C2E0120E9
:103340005447000880B582B000AF78607B6838339E
:103350001846FDF7D2FC7B687A685A647B681A6A63
:103360007B689A63054B1A687B68383319461046A8
:10337000FDF7F2FC00BF0837BD4680BDBC2E012022
:1033800080B485B000AF786039607B681B68FB60F3
:103390003B681A687B681A603B68FA681A6000BF6D
:1033A0001437BD4680BC704780B588B000AF3D4B38
:1033B0001B681B68002B08D13B4B1B681B68002B4C
:1033C00003D039493748FFF7DBFF364B1B6808331A
:1033D0007B61344B1B68DB68FB6123E0FB69DB68C6
:1033E000FB60FB681A6AFB691A60FB69BB60FB69DA
:1033F0005B68FB61FB699B681846FDF7E5FCFB68B1
:103400001A6AFB689B6A9A4206D2274B1B68B96806
:103410001846FDF7A1FC05E0244B1B68B968184667
:10342000FDF79AFCFA697B699A42D7D11F491D487A
:10343000FFF7A6FF0323BB611A4B1B6808333B61F0
:10344000184B1B68DB68FB6123E0FB69DB68FB60F2
:10345000BB69B3F1FF3F0ADA4FF0050383F311882C
:10346000BFF36F8FBFF34F8F7B6000BFFEE7BA697A
:10347000FB681A61FB685B691A68FB681B6919467F
:103480001046FEF7F5FBBB69013BBB61FB695B685E
:10349000FB61FA693B699A42D7D100BF00BF203770
:1034A000BD4680BDBC2E0120C42E0120C02E0120AF
:1034B00080B584B000AF7860FFF730FA0346002192
:1034C0001846FFF76FF9F860FB68002B0AD14FF040
:1034D000050383F31188BFF36F8FBFF34F8FBB607A
:1034E00000BFFEE7FB689B69002B08D0FB6803F177
:1034F0002802FB689B6919461046FEF721FBFB6812
:103500000122DA64FB689B69002B03D1144B1A6813
:10351000FB689A6200F024FAFB6800225A63FB6899
:103520001B6878689847FB6801225A63FB68002291
:103530001A63FB689A6AFB685B6A1A44FB68DB697A
:103540001A44FB681A6200F00BFAFB6803F12802C8
:10355000FB685B6A19461046FEF7F2FADAE700BF2D
:103560007C2E012080B59CB000AFF860B9607A6015
:103570003B60FDF7A5FA5C20FDF7B0F8F866FB6E3E
:1035800018465C231A46002100F082FCFB6EFA68A4
:103590001A60FB6EBA685A60FB6E7A689A60FB6EBE
:1035A0003A68DA60FB6EBA6F1A61FB6EFA6F5A61A5
:1035B000FB6ED7F880209A61FB6ED7F88C20DA6119
:1035C000FB6ED7F884205A62FB6ED7F88820DA6247
:1035D000FB6E01225A63FB6EDA69FB6E9B691A442B
:1035E0000D4B1B681A44FB6E1A62FB6E4FF0FF32E4
:1035F0001A61FB6E0022DA64FB6E00225A65FB6ED4
:1036000000229A65F86EFFF79DFEFDF789FA00BF6C
:103610007037BD4680BD00BF7C2E012090B589B0BB
:1036200002AF204B1B6808333B611E4B1B68DB68F5
:103630007B612EE07B69DB68FB60FB68002B0AD1B5
:103640004FF0050383F31188BFF36F8FBFF34F8FE4
:103650007B6000BFFEE7FB685968FB689B6898B217
:10366000FB68DC68FB681B69FA6852690192009389
:10367000234602460C48FEF7A1F8B860FB685B6978
:103680001B68FA6800211846FFF75EF87B695B68E3
:103690007B617A693B699A42CCD100BF00BF1C377D
:1036A000BD4690BDBC2E0120B134000880B485B069
:1036B00000AF0323FB600F4B1B6808337B600D4B8F
:1036C0001B68DB68BB600BE0BB68DB683B603B688A
:1036D000FA681A61FB68013BFB60BB685B68BB6012
:1036E000BA687B689A42EFD100BF00BF1437BD466D
:1036F00080BC7047BC2E012090B587B002AF7860C7
:103700007B6859687B689B6898B27B68DC687B68DB
:103710001B697A68526901920093234602460E485B
:10372000FEF74CF8F860FB68012B10D17B685B69F1
:103730001B687A6800211846FFF706F87B680022AC
:10374000DA647B6800225A657B6800229A6500BFB4
:103750001437BD4690BD00BFB134000880B582B0BB
:1037600000AF786039607B685B683A681946124838
:10377000FCF762FD7B685B691B681846FEF76EF913
:103780007B6800221A637868FFF7B6FF7B689A6A45
:103790007B685B6A1A447B689A617B6800229A6244
:1037A0007B68DA697B689B691A447B681A6200BF90
:1037B0000837BD4680BD00BF5C47000880B582B0B9
:1037C00000AF786039607B68002B11D07B685B6B41
:1037D000002B0DD17B68DB6C012B09D17B681A6A49
:1037E0003B68D31A002B03DA39687868FFF7B6FF15
:1037F00000BF0837BD4680BD80B584B000AF78609B
:1038000039603B6859683B681A6B7B681448FCF761
:1038100013FD3B6801229A653B6801225A653B68AB
:103820009A6A3B685B6A1A443B681A653B680022E7
:103830001A630C4B1B6807F10C0200211846FFF7B6
:103840006FF9FB68002B07D0074B4FF080521A60CE
:10385000BFF34F8FBFF36F8F00BF1037BD4680BDE2
:103860007C470008CC2E012004ED00E080B582B03A
:1038700000AF786039603B689B6A7A68D31A002B86
:1038800002DD3B6800225A6379683868FFF796FFCB
:103890003B689B6D012B08D13B6800229A653B6811
:1038A0005B691B681846FEF781FA3B685B6D012B6C
:1038B00012D13B681A6D7B68D31A002B0CDC3B6875
:1038C00000225A653B687A689A623B685B691B68AC
:1038D0001846FEF71DFB00BF00BF0837BD4680BD80
:1038E00080B584B000AFFFF75FFDFEF769FCB860FC
:1038F0000E4B1B6808337B600C4B1B68DB68FB605E
:1039000009E0FB68DB683B603968B868FFF7AEFF29
:10391000FB685B68FB60FA687B689A42F1D14FF004
:10392000FF3201210020FFF793F8DCE7BC2E0120D5
:1039300080B582B002AF074B0193042300930023AC
:103940004FF47A7204490548FDF738FF00BFBD46C1
:1039500080BD00BFCC2E0120B0470008E138000830
:1039600080B582B000AF0B4B1B683A1D0021184692
:10397000FFF7D6F87B68002B07D0074B4FF080523B
:103980001A60BFF34F8FBFF36F8F00BF0837BD467C
:1039900080BD00BFCC2E012004ED00E080B582B0D8
:1039A00000AFFEF7BBFF786000217868FEF7FAFEF3
:1039B00038603B68002B24D01B4B1B687A689A4206
:1039C0001FD0FEF741FC02467B68934219D03B684A
:1039D0001B6B5A1C3B681A633B68DA6A3B681B6BBB
:1039E0009A420ED83B689B6D002B0AD13B685B6DF9
:1039F000002B06D1FEF7F2FB034639681846FFF7A5
:103A0000FBFE0A4B1B680133084A1360074B1B6817
:103A1000642B04D1054B00221A60FFF7A1FF00BF01
:103A20000837BD4680BD00BFCC2E0120C82E012026
:103A300080B500AF0948FDF741F90948FDF73EF9A7
:103A40000848FDF73BF9084B044A1A60074B044A43
:103A50001A60074B034A1A6000BF80BD802E012008
:103A6000942E0120A82E0120BC2E0120C02E012062
:103A7000C42E012080B500AFFFF718FEFFF758FFF6
:103A8000FFF7CCFDFEF79CFB0346034A1360FEF7ED
:103A90009DFA00BF80BD00BF7C2E012090B585B08F
:103AA00000AF7860FEF78CFB0346BB600020FEF79A
:103AB000A7FB034619462A48FCF7BEFB294B1B68A7
:103AC0001846FEF79DFB0446264B1B681846FEF77A
:103AD000B5F803461A4621462348FCF7ADFB234BB5
:103AE0001B681846FEF78CFB0446204B1B681846E3
:103AF000FEF7A4F803461A4621461B48FCF79CFB38
:103B00001B4B1B681846FEF77BFB0446184B1B68D3
:103B10001846FEF793F803461A4621461248FCF76A
:103B20008BFB0023FB6002E0FB680133FB60FB685A
:103B3000104A9342F8DDFEF743FB03461A46BB6882
:103B4000D31ABB60B9680C48FCF776FB7B68DBB224
:103B5000184600F01DF900BF1437BD4690BD00BFE8
:103B6000BC470008D02E0120D0470008D42E0120E9
:103B7000D82E0120FF340C00E447000880B588B03F
:103B800006AF00237B60294B1B6B284A43F00803D8
:103B90001363264B1B6B03F008037B607B680120DB
:103BA00000F07EF8022000F07BF8032000F078F8A7
:103BB000FFF73EFFC823059308230493C82303930C
:103BC000002302931A4B01930123009301238222C5
:103BD00018491948FFF7C6FCFA23059308230493F4
:103BE000FA23039396230293144B0193012300932A
:103BF0000323822212491048FFF7B4FC4FF4967356
:103C00000593082304934FF496730393C8230293F8
:103C10000C4B019301230093022382220A49064898
:103C2000FFF7A0FCFFF726FFFEE700BF00380240C9
:103C3000D02E0120EC4700089D3A0008D42E012028
:103C4000F4470008D82E0120FC470008DFF834D0E4
:103C5000002103E00C4B5B58435004310B480C4BE4
:103C600042189A42F6D30B4A02E0002342F8043B82
:103C7000094B9A42F9D300F0A5F800F0D7F8FFF706
:103C80007DFF704700000220484800080000002027
:103C90008000002080000020342F0120FEE700007B
:103CA00080B58CB000AF0346FB71FB79002B0ED1C1
:103CB0000023BB61334B1B6B324A43F00803136391
:103CC000304B1B6B03F00803BB61BB6934E0FB792D
:103CD000012B0ED100237B612A4B1B6B294A43F039
:103CE00008031363274B1B6B03F008037B617B699D
:103CF00022E0FB79022B0ED100233B61214B1B6B91
:103D0000204A43F0080313631E4B1B6B03F00803A8
:103D10003B613B6910E0FB79032B0DD10023FB6075
:103D2000184B1B6B174A43F008031363154B1B6BAF
:103D300003F00803FB60FB68FB79134A32F8133089
:103D4000FB6101233B6201237B620223BB62FB799F
:103D50000E4A52F8233007F11C0211461846FCF7B0
:103D6000F1FAFB79094A52F82300FB79064A32F846
:103D7000133000221946FCF77FFC00BF3037BD46E8
:103D800080BD00BF00380240044800080800002041
:103D900080B582B000AF0346FB71FB79074A52F849
:103DA0002320FB79064931F8133019461046FCF7F9
:103DB0007BFC00BF0837BD4680BD00BF0800002067
:103DC0000448000880B400AF124B1B68114A43F04E
:103DD000010313600F4B00229A600E4B1B680D4AC3
:103DE00023F0847323F4803313600A4B0A4A5A6029
:103DF000084B1B68074A23F480231360054B0022FD
:103E0000DA60064B4FF000629A6000BFBD4680BC8E
:103E1000704700BF003802401030002400ED00E081
:103E2000014B1868704700BF1C00002070B50026C9
:103E30000C4D0D4C641BA410A64209D100F076FC79
:103E400000260A4D0A4C641BA410A64205D170BD81
:103E500055F8043B98470136EEE755F8043B984780
:103E60000136F2E740480008404800084048000892
:103E7000444800080A44914200F1FF3300D17047E2
:103E800010B511F8014B914203F8014FF9D110BD63
:103E900003460244934200D1704703F8011BF9E73F
:103EA00030B5141E05469BB0184605DA8B234FF03B
:103EB000FF302B601BB030BD4FF40273ADF80C30F7
:103EC0000CBF234604F1FF33029305934FF6FF73B3
:103ED000024600910491ADF80E3069461E9B2846BB
:103EE00000F074F8431CBCBF8B232B60002CE1D086
:103EF0000022009B1A70DDE707B5009313460A46BF
:103F0000014603480068FFF7CBFF03B05DF804FBF0
:103F10001C0000202DE9F0478E6882469E420C4628
:103F200090461F4638D88A8912F4906F32D025689F
:103F300009690133A5EB010965694B4405EB4505AA
:103F400005EBD5756D109D4238BF1D46530531D523
:103F5000294600F045FB064650B90C234FF0FF30D0
:103F6000CAF80030A38943F04003A381BDE8F0877D
:103F70004A462169FFF77EFFA38923F4906343F04B
:103F80008003A38126614E4426603E466561A5EB11
:103F90000905A560BE4200D93E463246414620682A
:103FA00000F0B8FAA36822689B1B32440020A3608B
:103FB0002260DBE72A4600F06DFB06460028E1D1CF
:103FC0005046216900F0C0FAC7E700002DE9F04F24
:103FD00098468B8907461B060D4614469DB00ED5A4
:103FE0000B6963B9402100F0FBFA2860286120B911
:103FF0000C233B604FF0FF30D1E040236B61002386
:10400000099320238DF8293030234FF00109CDF892
:104010000C80DFF8A4818DF82A3023469A4613F8E5
:10402000012B0AB1252AF9D1BAEB040B0BD05B4660
:10403000224629463846FFF76DFF013000F0AA807E
:10404000099A5A4409929AF80030002B00F0A28095
:1040500000234FF0FF32CDE905230AF1010A049352
:1040600007938DF853301A935446052214F8011B18
:10407000514800F041FA049AD8B9D00644BF202331
:104080008DF85330110744BF2B238DF853309AF825
:1040900000302A2B15D0544600204FF00A0C079A06
:1040A000214611F8013B303B092B4ED9B0B10792A4
:1040B00014E0A0EB080309FA03F31343A2460493A8
:1040C000D2E7039B191D1B680391002BBBBF5B420A
:1040D00042F0020207930793B8BF049223782E2B75
:1040E0000CD163782A2B35D1039B02341A1D1B682F
:1040F0000392002BB8BF4FF0FF330593DFF8C8A041
:1041000003225046217800F0F7F940B14023A0EB9C
:104110000A0003FA00F0049B01340343049314F8EB
:10412000011B062225488DF8281000F0E5F900282B
:1041300038D0234B1BBB039B073323F00703083303
:104140000393099B3344099367E70C4601200CFB5A
:104150000232A5E700234FF00A0C194601340593FB
:10416000204610F8012B303A092A03D9002BC5D07C
:104170000591C3E7044601230CFB0121F0E703ABE3
:1041800000932A4638460F4B04A9AFF30080421C27
:104190000646D6D1AB895B063FF52CAF09981DB01A
:1041A000BDE8F08F03AB00932A463846054B04A9BF
:1041B00000F07CF8EBE700BF0C4800081648000848
:1041C00000000000153F0008124800082DE9F047E4
:1041D000164699468A680B6907469342B8BF13464C
:1041E000336091F843200C46DDF820800AB101339A
:1041F00033602368990642BF336802333360256811
:1042000015F0060506D104F1190AE36832689B1A15
:10421000AB4228DC94F84320131E226818BF012308
:1042200092062DD44946384604F14302C047013076
:1042300020D02368E56803F00603042B18BF00258F
:1042400032684FF00006A36808BFAD1A226908BFA4
:1042500025EAE5759342C4BF9B1AED181A34B5429E
:104260001AD1002008E00123524649463846C0478B
:10427000013003D14FF0FF30BDE8F0870135C4E7CE
:104280003020E11881F843005A1C94F8451022446C
:10429000023382F84310C5E70123224649463846D7
:1042A000C0470130E6D00136D9E700002DE9FF47CD
:1042B0000C46277E9146782F80469A460C9904F149
:1042C000430207D8622F0AD8002F00F0D980582F58
:1042D00000F0A48004F1420684F842703AE0A7F1AD
:1042E0006303152BF6D801A050F823F045430008CE
:1042F00059430008D5420008D5420008D5420008BD
:10430000D542000859430008D5420008D5420008AC
:10431000D5420008D54200086744000889430008D8
:1043200049440008D5420008D542000889440008E5
:10433000D542000889430008D5420008D54200084C
:10434000514400080B6804F142061A1D1B680A60FC
:1043500084F842300123A4E0256808682E0600F1A5
:1043600004030AD505680B60002D03DA2D236D4286
:1043700084F843300A235E4819E015F0400F0568C1
:104380000B6018BF2DB2EFE70B682568181D086099
:10439000280601D51D6802E06906FBD51D886F2F30
:1043A0000CBF08230A235248002184F84310666892
:1043B000002EA8BF2168A660A4BF21F004012160DF
:1043C0000DB9002E4DD01646B5FBF3F103FB115786
:1043D000C75D06F8017D2F46BB420D46F4D9082B78
:1043E0000BD12368DF0708D5236961689942DEBFD6
:1043F000302306F8013C06F1FF36921B22614B4642
:1044000021464046CDF800A003AAFFF7DFFE0130A9
:104410004CD14FF0FF3004B0BDE8F087344884F849
:1044200045700E68236856F8045B1F060E6014D5AD
:10443000D90744BF43F0200323601DB9236823F04C
:10444000200323601023AFE7236843F02003236099
:104450007823284884F84530E3E75E0648BFADB2CC
:10446000E6E71646BBE70B6826681D1D60690D6010
:1044700035061B6801D5186002E07106FBD518806F
:10448000002316462361BAE70B681A1D0A601E68EE
:1044900000213046626800F02FF808B1801B606090
:1044A00063682361002384F84330A8E73246494615
:1044B00040462369D0470130ABD023689B0713D413
:1044C000E068039B9842B8BF1846A4E70123324630
:1044D00049464046D04701309BD00135E3680399F7
:1044E0005B1AAB42F2DCEBE7002504F11906F5E7B5
:1044F0001D4800082E480008034610B5C9B2024402
:104500009342184601D1002003E0047801338C4225
:10451000F6D110BD884210B501EB020402D98442E5
:10452000234607D8431EA14208D011F8012B03F8F7
:10453000012FF8E7014602448A4200D110BD13F86A
:10454000014D02F8014DF7E738B50546002943D083
:1045500051F8043C0C1F002BB8BFE41800F0D0F851
:104560001E4A1368104633B9636014602846BDE8DC
:10457000384000F0CBB8A3420AD9216862189342B0
:1045800001BF1A685B685218226063600460EDE73F
:104590001A465B680BB1A342FAD911685018A042C1
:1045A0000BD120680144501883421160DED1186895
:1045B0005B68014411605360D8E702D90C232B607B
:1045C000D4E7206821188B4201BF19685B6809187D
:1045D000216063605460C9E738BD00BFDC2E012054
:1045E000F8B5CD1C25F0030508350C2D38BF0C257A
:1045F000002D064601DBA94203D90C2333600020BD
:10460000F8BD00F07DF821490A6814469CB9204F96
:104610003B6823B92146304600F062F838602946ED
:10462000304600F05DF8431C23D10C233046336044
:1046300000F06CF8E3E723685B1B17D40B2B03D95E
:1046400023601C44256004E06368A2420CBF0B6039
:104650005360304600F05AF804F10B00231D20F09F
:104660000700C21ACCD01B1AA350C9E722466468BF
:10467000CCE7C41C24F00304A042E3D0211A304646
:1046800000F02EF80130DDD1CFE700BFDC2E012095
:10469000E02E0120F8B5074614460E4621B9114612
:1046A000BDE8F840FFF79CBF22B9FFF74DFF254654
:1046B0002846F8BD00F030F8A0420FD22146384617
:1046C000FFF78EFF05460028F2D031462246FFF75D
:1046D000D1FB31463846FFF737FFE9E73546E7E7D4
:1046E00038B50023054D044608462B60FBF770FDE6
:1046F000431C02D12B6803B1236038BDE42E012096
:10470000014800F011B800BF2C2F0120014800F033
:104710000CB800BF2C2F012051F8043C181F002BAF
:10472000BCBF0B58C018704770477047F8B500BF42
:10473000F8BC08BC9E467047F8B500BFF8BC08BC82
:044740009E467047DA
:1047440049444C4500000000546D722053766300C8
:10475400546D7251000000000D0A446561646C6977
:104764006E65206D697373656421202573207469F7
:10477400636B2025640D0A000D0A576F7273742051
:104784006361736520657865637574696F6E207401
:10479400696D6520657863656564656421202573AA
:1047A4002025642025640D0A000000005363686519
:1047B40064756C657200000025732A2A2A2A2A2A45
:1047C4002A2A2A2A2A2A2A0A00000000257320708D
:1047D40072696F726974793A2025690A00000000D1
:1047E40064742025690A00005461736B3100000071
:1047F4005461736B320000005461736B330000002A
:104804000010002000400080232D302B2000686C15
:104814004C006566674546470030313233343536DF
:104824003738394142434445460030313233343518
:0C48340036373839616263646566000045
:04484000B5010008B6
:0448440091010008D6
:10484800F82B0100AAAAAAAA000C0240000C0240F8
:10485800000C0240000C02400024F400200000205C
:104868000000000000000000000000000000000040
:104878000000000000000000000000000000000030
:104888000000000000000000000000000000000020
:104898000000000000000000000000000000000010
:1048A8000000000000000000000000000000000000
:1048B80000000000000000000000000000000000F0
:0400000508003C4D66
:00000001FF
